:020000040000FA
:100000000C9462000C948A000C948A000C948A0070
:100010000C948A000C948A000C948A000C948A0038
:100020000C948A000C948A000C948A000C948A0028
:100030000C948A000C948A000C948A000C948A0018
:100040000C9497040C948A000C9407050C94E1041A
:100050000C948A000C948A000C948A000C948A00F8
:100060000C9439050C948A0000000000230026003F
:10007000290000000000240027002A0000000000E2
:10008000250028002B0004040404040404040202D4
:100090000202020203030303030301020408102007
:1000A0004080010204081020010204081020000012
:1000B0000008000201000003040700000000000027
:1000C0000000580611241FBECFEFD8E0DEBFCDBF21
:1000D00011E0A0E0B1E0E0EAF2E102C005900D928B
:1000E000A834B107D9F722E0A8E4B1E001C01D921D
:1000F000A43BB207E1F710E0C2E6D0E004C02197CC
:10010000FE010E944809C136D107C9F70E94910635
:100110000C944E090C94000091E09093E7018093B9
:1001200009021092E80110920A020895833081F0CA
:1001300028F4813099F08230A9F008958730A9F031
:100140008830C9F08430B1F4809180008F7D03C085
:10015000809180008F7780938000089584B58F7799
:1001600084BD089584B58F7DFBCF8091B0008F77DB
:100170008093B00008958091B0008F7DF9CF1F93D8
:10018000CF93DF93282F30E0F901E255FF4F8491A0
:10019000F901E656FF4FD491F901EA57FF4FC49198
:1001A000CC23A9F0162F81110E949600EC2FF0E0CD
:1001B000EE0FFF1FE458FF4FA591B4918FB7F8944D
:1001C000EC91111108C0D095DE23DC938FBFDF9135
:1001D000CF911F910895DE2BF8CFCF93DF9390E05E
:1001E000FC01E656FF4F24918A579F4FFC018491F2
:1001F0008823D1F090E0880F991FFC01EE58FF4F43
:10020000A591B491FC01E458FF4FC591D4916111BF
:100210000EC09FB7F8948C91E22FE0958E238C93BB
:100220002881E223E8839FBFDF91CF9108958FB7A4
:10023000F894EC91E22BEC938FBFF6CF3FB7F89494
:100240008091B7019091B801A091B901B091BA0124
:1002500026B5A89B05C02F3F19F00196A11DB11D21
:100260003FBFBA2FA92F982F8827BC01CD01620F5D
:10027000711D811D911D42E0660F771F881F991F18
:100280004A95D1F708958F929F92AF92BF92CF92E5
:10029000DF92EF92FF924B015C010E941E016B0105
:1002A0007C010E941E016C197D098E099F09683E20
:1002B000734081059105A8F321E0821A9108A108F5
:1002C000B10888EEC80E83E0D81EE11CF11C811431
:1002D0009104A104B10429F7FF90EF90DF90CF9033
:1002E000BF90AF909F908F90089508950895AF921A
:1002F000BF92CF92DF92EF92FF920F931F93CF9313
:10030000DF936C017B018B01040F151FEB015E0174
:10031000AE18BF08C017D10759F06991D601ED9109
:10032000FC910190F081E02DC6010995892B79F7A8
:10033000C501DF91CF911F910F91FF90EF90DF905A
:10034000CF90BF90AF900895FC01538D448D252F21
:1003500030E0842F90E0821B930B541710F0CF965F
:10036000089501970895FC01918D828D981761F091
:10037000A28DAE0FBF2FB11D5D968C91928D9F5FA8
:100380009F73928F90E008958FEF9FEF0895FC0187
:10039000918D828D981731F0828DE80FF11D858D3A
:1003A00090E008958FEF9FEF0895FC01918D228DCD
:1003B000892F90E0805C9F4F821B91098F73992752
:1003C00008958BE092E00E94D50121E0892B09F489
:1003D00020E0822F089580E090E0892B29F00E9490
:1003E000E10181110C9400000895FC01A48DA80F77
:1003F000B92FB11DA35ABF4F2C91848D90E0019667
:100400008F739927848FA689B7892C93A089B18986
:100410008C91837080648C93938D848D981306C027
:100420000288F389E02D80818F7D80830895EF928B
:10043000FF920F931F93CF93DF93EC0181E0888F9E
:100440009B8D8C8D98131AC0E889F989808185FF6E
:1004500015C09FB7F894EE89FF896083E889F98910
:1004600080818370806480839FBF81E090E0DF9112
:10047000CF911F910F91FF90EF900895F62E0B8D65
:1004800010E00F5F1F4F0F731127E02E8C8D8E1120
:100490000CC00FB607FCFACFE889F989808185FF87
:1004A000F5CFCE010E94F501F1CFEB8DEC0FFD2FC2
:1004B000F11DE35AFF4FF0829FB7F8940B8FEA8942
:1004C000FB8980818062CFCFCF93DF93EC01888D51
:1004D0008823B9F0AA89BB89E889F9898C9185FDBF
:1004E00003C0808186FD0DC00FB607FCF7CF8C914D
:1004F00085FFF2CF808185FFEDCFCE010E94F5010F
:10050000E9CFDF91CF91089520918901260F3327FC
:10051000331F21323105ECF42091E101FC0190E020
:1005200080E0243069F082E00895A0918901219152
:10053000AC0147595E4FA40FB52FB11D2C93019606
:10054000861798F380918901680F6093890180E094
:10055000089581E008951092E10181E08093E00127
:100560001092BB0161E082E10E94BF0061E083E183
:100570000E94BF00E9EBF0E080818E7F8083808164
:100580008D7F808388E48093B80085E48093BC00ED
:100590000895CF93DF9391E0909368018823B9F099
:1005A000C091B800D091BA008091BC008A7B809342
:1005B000BC0060E082E10E94BF0060E083E10E9435
:1005C000BF000E94AB02D093BA00C093B800DF9185
:1005D000CF910895CF92DF92EF92FF920F931F93E6
:1005E000CF93DF93D0910A0281E0D13208F09CC012
:1005F000C09109020E941E016B017C018091E10102
:1006000081116CC082E08093E10181E08093E00180
:100610008FEF8093DF011092DE01D093DD01A9EE10
:10062000B1E0EDEBF1E080E0D8138DC01092BC0199
:100630008091BC01CC0FC82BC093BC018091BB0141
:10064000813009F084C01092BB010E941E016B0131
:100650007C018091BC018093BB008091E30190916B
:10066000E401A091E501B091E601892B8A2B8B2B47
:10067000A1F00E941E010091E3011091E40120917C
:10068000E5013091E6016C197D098E099F09061775
:1006900017072807390708F442C08091BC0083FD82
:1006A000D8CF85EC8093BC000E941E016B017C01B9
:1006B0008091E101823009F44CC08091DF018F3FCD
:1006C00009F469C08091DF01803209F466C080912D
:1006D000DF01803309F463C084E026C08091E30128
:1006E0009091E401A091E501B091E601892B8A2B5C
:1006F0008B2B09F483CF0E941E010091E30110911E
:10070000E4012091E5013091E6016C197D098E0923
:100710009F09061717072807390708F06FCF809140
:10072000E2010E94C90285E01092E80110920A02DB
:100730001092E701DF91CF911F910F91FF90EF9001
:10074000DF90CF9008959D9191938F5F6DCF85EE4F
:10075000A9CF8091E3019091E401A091E501B091CE
:10076000E601892B8A2B8B2B09F4A2CF0E941E0154
:100770000091E3011091E4012091E5013091E6013F
:100780006C197D098E099F09061717072807390775
:1007900008F08ECFC4CF80E0C7CF82E0C5CF83E022
:1007A000C3CF0895E091B1018091B001E81730F412
:1007B000F0E0E85BFE4F808190E008958FEF9FEFBF
:1007C00008959091B1018091B0012FEF3FEF9817FC
:1007D00048F4E92FF0E0E85BFE4F208130E09F5FB6
:1007E0009093B101C90108958091B0019091B10138
:1007F000891B990B0895CF92DF92EF92FF920F938E
:100800001F93CF93DF937C01CB018A012091E701F5
:10081000222389F0EB016B01C40ED51ECC15DD053A
:1008200069F06991D701ED91FC910190F081E02D83
:10083000C7010995F3CF642F0E948402C801DF919C
:10084000CF911F910F91FF90EF90DF90CF9008957F
:10085000CF93DF931F92CDB7DEB769832091E70175
:100860002223F9F020910A02203258F021E030E0F2
:10087000FC013383228390E080E00F90DF91CF91E1
:1008800008958091E801E82FF0E0E751FE4F99814B
:1008900090838F5F8093E80180930A0281E090E06B
:1008A000ECCF61E0CE0101960E948402F7CF682F61
:1008B00088EA92E00C94280490E080E0089585EDA9
:1008C0008093BC008091E3019091E401A091E50147
:1008D000B091E6010796A11DB11D23E0B695A7953D
:1008E000979587952A95D1F72091BC0024FD03C0E8
:1008F0001092E10108954091E3015091E40160916B
:10090000E5017091E601452B462B472B69F30097D3
:10091000A105B10541F02AE22A95F1F700C001973F
:10092000A109B109E1CF8091E2010C94C9021F92A3
:100930000F920FB60F9211242F933F938F939F9393
:10094000AF93BF938091B3019091B401A091B50191
:10095000B091B6013091B20123E0230F2D3758F545
:100960000196A11DB11D2093B2018093B301909314
:10097000B401A093B501B093B6018091B7019091F5
:10098000B801A091B901B091BA010196A11DB11DA4
:100990008093B7019093B801A093B901B093BA01C5
:1009A000BF91AF919F918F913F912F910F900FBE6B
:1009B0000F901F90189526E8230F0296A11DB11DD8
:1009C000D2CF1F920F920FB60F9211242F933F9305
:1009D0004F935F936F937F938F939F93AF93BF9347
:1009E000EF93FF938BE092E00E94F501FF91EF916E
:1009F000BF91AF919F918F917F916F915F914F9137
:100A00003F912F910F900FBE0F901F9018951F923E
:100A10000F920FB60F9211242F938F939F93EF9302
:100A2000FF93E0911B02F0911C028081E091210272
:100A3000F091220282FD1BC09081809124028F5F81
:100A40008F7320912502821741F0E0912402F0E09B
:100A5000E55FFD4F958F80932402FF91EF919F9169
:100A60008F912F910F900FBE0F901F90189580813E
:100A7000F4CF1F920F920FB60F9211242F933F9332
:100A80004F935F936F937F938F939F93AF93BF9396
:100A9000EF93FF938091B900887F803609F44AC0B4
:100AA000F0F5883209F4A7C018F5803109F49BC02D
:100AB000B8F4882309F4F9C0883009F494C0FF9190
:100AC000EF91BF91AF919F918F917F916F915F91C6
:100AD0004F913F912F910F900FBE0F901F9018953F
:100AE000883109F488C0803251F78093DF0114C047
:100AF000803409F49DC040F48033B9F38833F9F6AB
:100B00008093DF0185ECB0C0803509F485C088355D
:100B100009F496C0883499F60E945F04D0CF8839D2
:100B200009F48CC038F5883729F050F4883611F074
:100B3000803729F683E08093E1011092AB0157C022
:100B4000883809F47BC0803919F0803809F0B7CFB4
:100B50008091AB01803208F071C0E091AB0181E07F
:100B60008E0F8093AB018091BB00F0E0E557FE4F04
:100B700080833DC0803B39F0E0F4803A09F479C0CD
:100B8000883A09F09CCF84E08093E10110928A01B9
:100B900010928901E091AE01F091AF010995809129
:100BA000890181110FC081E0809389011092690150
:100BB00009C0803C09F4A6CF883C09F4A3CF883B48
:100BC00009F07DCFE0918A0181E08E0F80938A0148
:100BD000F0E0E759FE4F80818093BB0090918A013D
:100BE0008091890129C08091BC018093BB0085EC74
:100BF0008093BC0064CF9091DE018091DD01981755
:100C000058F5E091DE0181E08E0F8093DE01F0E087
:100C1000E354FE4F8081E9CFE091DE0181E08E0F49
:100C20008093DE018091BB00F0E0E354FE4F8083AF
:100C30009091DE018091DD019817C8F285E8D8CF48
:100C4000E091DE0181E08E0F8093DE018091BB0098
:100C5000F0E0E354FE4F80838091E00181115CCF8E
:100C600081E08093BB0184EA8093BC001092E10193
:100C700026CF85EC8093BC001092E1018091AB01FE
:100C8000803230F4E091AB01F0E0E557FE4F108286
:100C90006091AB0170E0E091AC01F091AD018BE8A7
:100CA00091E009951092AB010ACF1092DF0134CF89
:100CB000EBE0F2E01382128288EE93E0A0E0B0E075
:100CC00084839583A683B78328E031E03183208332
:100CD00025EC30E03587248724EC30E03787268701
:100CE00020EC30E0318B208B21EC30E0338B228BF9
:100CF00022EC30E0358B248B26EC30E0378B268BD2
:100D0000118E128E138E148EE8EAF2E01382128294
:100D100084839583A683B7838AE191E0918380835E
:100D20000895789484B5826084BD84B5816084BD63
:100D300085B5826085BD85B5816085BD80916E0079
:100D4000816080936E0010928100809181008260AA
:100D500080938100809181008160809381008091E7
:100D600080008160809380008091B10084608093D6
:100D7000B1008091B00081608093B00080917A00D2
:100D8000846080937A0080917A00826080937A00F8
:100D900080917A00816080937A0080917A008068E7
:100DA00080937A001092C100E0911B02F0911C0226
:100DB00082E08083E0911702F09118021082E091A6
:100DC0001902F0911A028FEC808310922302E091B5
:100DD0001F02F091200286E08083E0911D02F091D5
:100DE0001E02808180618083E0911D02F0911E02CD
:100DF000808188608083E0911D02F0911E028081D5
:100E000080688083E0911D02F0911E0280818F7DB9
:100E100080831092B1011092B0011092E8011092FB
:100E20000A020E94AB0285E791E09093AF018093A4
:100E3000AE0186E791E09093AD018093AC0164EF41
:100E400071E080E090E00E94430161E085E00E9453
:100E5000ED0061E085E00E94BF00C6EBD0E002EA51
:100E600010E09EE8E92E90E0F92E60E088E00E9414
:100E7000ED00FE018491F801C490F701D490DD20CB
:100E800071F081110E949600ED2DF0E0EE0FFF1F32
:100E9000E859FF4FA591B4918C91C82231F761E0D8
:100EA00085E00E94ED0060E085E00E94BF0081E0E7
:100EB0000E948C0087E290E00E9457040E94EA02A0
:100EC0006AE070E080E090E00E94430182E00E94CE
:100ED0008C0087E290E00E9457040E94EA026AE0D8
:100EE00070E080E090E00E94430183E00E948C006B
:100EF00087E290E00E9457040E94EA026AE070E0F4
:100F000080E090E00E94430184E00E948C0087E230
:100F100090E00E9457040E94EA026AE070E080E0DC
:100F200090E00E94430185E00E948C0087E290E0FF
:100F30000E9457040E94EA026AE070E080E090E0BC
:100F40000E94430186E00E948C0087E290E00E94AC
:100F500057040E94EA0268EE73E080E090E00E948D
:100F6000430181E00E948C0085E290E00E945704DA
:100F70000E94EA026AE070E080E090E00E94430193
:100F800082E00E948C0085E290E00E9457040E945B
:100F9000EA026AE070E080E090E00E94430183E0B2
:100FA0000E948C0085E290E00E9457040E94EA02B1
:100FB0006AE070E080E090E00E94430184E00E94DB
:100FC0008C0085E290E00E9457040E94EA026AE0E9
:100FD00070E080E090E00E94430185E00E948C0078
:100FE00085E290E00E9457040E94EA026AE070E005
:100FF00080E090E00E94430186E00E948C0085E240
:1010000090E00E9457040E94EA0264E670E080E0EB
:1010100090E00E94430180E480937C0080917A00FC
:10102000806480937A0080917A0086FDFCCF609185
:10103000780070917900072E000C880B990B6115D0
:1010400071058105910511F00E94DC084BE150E02B
:1010500068E271E08BE092E00E94770142E050E0AC
:1010600064E471E08BE092E00E947701C0E0D0E0A0
:101070002097F1F30E94E1018823D1F30E94000040
:10108000F7CF8F929F92AF92BF92CF92DF92EF9263
:10109000FF92CF93DF93EC01688179818A819B81F4
:1010A000611571058105910521F464E279ED8BE507
:1010B00097E02DE133EF41E050E00E94E50849015F
:1010C0005A019B01AC01A7EAB1E40E9404096B013B
:1010D0007C01ACEEB4EFA50194010E941209C60E8A
:1010E000D71EE81EF91EF7FE06C081E0C81AD10817
:1010F000E10880E8F80AC882D982EA82FB82C70147
:10110000B6019F77DF91CF91FF90EF90DF90CF9066
:10111000BF90AF909F908F9008958F929F92AF92C3
:10112000BF92CF92DF92EF92FF9260910001709197
:101130000101809102019091030161157105810502
:10114000910521F464E279ED8BE597E02DE133EF31
:1011500041E050E00E94E50849015A019B01AC01C1
:10116000A7EAB1E40E9404096B017C01ACEEB4EF84
:10117000A50194010E941209C60ED71EE81EF91E91
:10118000F7FE06C081E0C81AD108E10880E8F80A35
:10119000C0920001D0920101E0920201F09203019D
:1011A000C701B6019F77FF90EF90DF90CF90BF907F
:1011B000AF909F908F90089560930001709301010C
:1011C00080930201909303010895052E97FB1EF46E
:1011D00000940E94FC0857FD07D00E94170907FCE5
:1011E00003D04EF40C94FC08509540953095219511
:1011F0003F4F4F4F5F4F0895909580957095619543
:101200007F4F8F4F9F4F08950E943909A59F900DE2
:10121000B49F900DA49F800D911D11240895B7FFD8
:101220000C9404090E940409821B930B0895A1E207
:101230001A2EAA1BBB1BFD010DC0AA1FBB1FEE1F50
:10124000FF1FA217B307E407F50720F0A21BB30B9B
:10125000E40BF50B661F771F881F991F1A9469F717
:1012600060957095809590959B01AC01BD01CF0173
:101270000895A29FB001B39FC001A39F700D811D6F
:101280001124911DB29F700D811D1124911D08958F
:10129000EE0FFF1F0590F491E02D0994F894FFCF15
:1012A000010000000000000017027701A4016402A1
:1012B000D501B301C701000000002804FB035C0452
:1012C000D103F403E103D2035574696C6974792086
:1012D0006C69627261727920696E697469616C69A6
:0812E0007A6564000D0A0000AC
:107E0000112484B714BE81FFF0D085E080938100F7
:107E100082E08093C00088E18093C10086E0809377
:107E2000C20080E18093C4008EE0C9D0259A86E02C
:107E300020E33CEF91E0309385002093840096BBD3
:107E4000B09BFECF1D9AA8958150A9F7CC24DD24C4
:107E500088248394B5E0AB2EA1E19A2EF3E0BF2EE7
:107E6000A2D0813461F49FD0082FAFD0023811F036
:107E7000013811F484E001C083E08DD089C08234E0
:107E800011F484E103C0853419F485E0A6D080C0E4
:107E9000853579F488D0E82EFF2485D0082F10E0AE
:107EA000102F00270E291F29000F111F8ED06801E7
:107EB0006FC0863521F484E090D080E0DECF843638
:107EC00009F040C070D06FD0082F6DD080E0C81688
:107ED00080E7D80618F4F601B7BEE895C0E0D1E017
:107EE00062D089930C17E1F7F0E0CF16F0E7DF06D8
:107EF00018F0F601B7BEE89568D007B600FCFDCFD4
:107F0000A601A0E0B1E02C9130E011968C91119780
:107F100090E0982F8827822B932B1296FA010C0160
:107F200087BEE89511244E5F5F4FF1E0A038BF0790
:107F300051F7F601A7BEE89507B600FCFDCF97BE46
:107F4000E89526C08437B1F42ED02DD0F82E2BD052
:107F50003CD0F601EF2C8F010F5F1F4F84911BD097
:107F6000EA94F801C1F70894C11CD11CFA94CF0C13
:107F7000D11C0EC0853739F428D08EE10CD085E9AC
:107F80000AD08FE07ACF813511F488E018D01DD067
:107F900080E101D065CF982F8091C00085FFFCCF94
:107FA0009093C60008958091C00087FFFCCF809118
:107FB000C00084FD01C0A8958091C6000895E0E648
:107FC000F0E098E1908380830895EDDF803219F02E
:107FD00088E0F5DFFFCF84E1DECF1F93182FE3DFCA
:107FE0001150E9F7F2DF1F91089580E0E8DFEE27F6
:047FF000FF270994CA
:027FFE00040479
:00000001FF
